:10096900E4F5A0C282C280C2817F38FE1209FE125C
:1009790009C57F067E001209FE1209C57F0C7E009B
:100989001209FE1209C57F017E001209FE1209C56E
:070999007F807E000209FED1
:0409C5007F047E002D
:1009C900E4FDFCC3ED9FEC9E5015E4FBFA0BBB0064
:0F09D900010ABA01F8BB7EF50DBD00010C80E4E8
:0109E80022EC
:1009FE00C280C281D2828FA07F0A7E001209C9C234
:020A0E00822242
:0309E9002430FFB8
:1009EC00D280C281D2828FA07F0A7E001209C9C236
:0209FC00822255
:1009A0008B168A178918AB16AA17A9181208C560E2
:1009B000130518E5187002051714F91208C5FF127F
:0509C00009EC80E222B9
:100800001209697F807E001209FE75890575900FB7
:10081000E4F58CF58AE5906401707BD28CAF8CEFA7
:10082000FEAD8A7C00E42DFFEC3EFE7C0E7D1012B6
:1008300008DE8E128F13AF8CEFFEAD8A7C00E42DA4
:10084000FFEC3EFE7C0E7D101208DE7E007F3CCF6A
:10085000CDCFCECCCE1208DE8E108F117C007D0A5B
:100860001209338E0A8F0BAE10AF117C007D0A1275
:1008700009338C148D15AE12AF137C007D0A12095A
:10088000338E0C8F0DAE12AF137C007D0A1209332C
:100890008C088D098006E5907002C28CE50D120966
:1008A000E9E5091209E97F3A1209ECE50B2430FF6A
:1008B0001209ECE5152430FF1209EC7F807E00124E
:0508C00009FE0208150D
:03000000020A10E1
:0C0A1000787FE4F6D8FD7581180208001C
:1008C500BB010689828A83E0225002E722BBFE0231
:0908D500E32289828A83E4932264
:1008DE00BC000BBE0029EF8DF084FFADF022E4CCFE
:1008EE00F875F008EF2FFFEE33FEEC33FCEE9DECC7
:1008FE00984005FCEE9DFE0FD5F0E9E4CEFD22ED0D
:10090E00F8F5F0EE8420D21CFEADF075F008EF2F56
:10091E00FFED33FD4007985006D5F0F222C398FD47
:05092E000FD5F0EA22E4
:10093300C2D5EC30E709B2D5E4C39DFDE49CFCEEDF
:1009430030E715B2D5E4C39FFFE49EFE1208DEC371
:10095300E49DFDE49CFC80031208DE30D507C3E46C
:060963009FFFE49EFE224E
:00000001FF
