:03000000020100FA
:080100003130317B31A680FE95
:100130007400759000780479602410F59031EED247
:1001400090D291D292D293A29092F4A29192F5A2DF
:100150009292F6A29392F72410F59031EED290D2BB
:1001600091D292D293A29092F0A29192F1A2929205
:10017000F2A29392F3A7F009D8BF22786079707A3F
:1001800004C3E6940A4014E69414400BE6941E401F
:1001900002500C7719400A770F4006770540027726
:1001A000230809DADC2278707904E6B4050EC294DB
:1001B000C295C296C297D29431F9802EB40F0EC266
:1001C00094C295C296C297D29531F9801DB4190E8A
:1001D000C294C295C296C297D29631F9800CC2944D
:1001E000C295C296C297D29731F908D9BD22C000F4
:1001F000780A5104D8FCD00022C00078055104D8F8
:10020000FCD00022C000780AC00179645117D9FCE3
:10021000D001D8F4D00022C00078045122D8FCD0FC
:0B0220000022C00078F7D8FED00022BA
:00000001FF
