:03000000020922D0
:0C092200787FE4F6D8FD75810B02080018
:1008C30020202045453333372D323032332020204A
:1008D3000020202020204B495348414E2020202037
:0208E3002000F3
:10084000E4F5A0C282C280C2817F38FE1208FE1287
:10085000087A7F067E001208FE12087A7F0C7E005E
:100860001208FE12087A7F017E001208FE12087A32
:070870007F807E000208FEFC
:070877001208FE7F047E0061
:10087E00E4FDFCC3ED9FEC9E5015E4FBFA0BBB00B0
:0F088E00010ABA01F8BB7EF50DBD00010C80E434
:01089D002238
:1008FE00C280C281D2828FA07F0A7E0012087EC281
:02090E00822243
:10091000D280C281D2828FA07F0A7E0012087EC25E
:02092000822231
:10089E008B088A09890AAB08AA09A90A1208E56019
:1008AE0013050AE50A7002050914F91208E5FF128C
:0508BE00091080E22298
:100800001208407F807E001208777BFF7A0879C348
:1008100012089E7F887E1312087E75900F85900BBC
:10082000E50BC454F0F50BF59012087EE4F5907FCB
:10083000C0FE1208777BFF7A0879D412089E80FEEA
:1008E500BB010689828A83E0225002E722BBFE0211
:0908F500E32289828A83E4932244
:00000001FF
