:03000000020A7D74
:0C0A7D00787FE4F6D8FD75811D020AC4E4
:1009D3002053544152542050524F4752414D2020EE
:1009E300002020464952535420494E50555420204C
:1009F30020002020204E45585420494E5055542065
:100A030020200020202020534F5254494E472020BD
:100A130020202000202020434F4D504C4554454476
:100A2300202020200020204E554D42455220544F77
:100A33002042452020002020205345415243484571
:100A43004420202020200020202020204E554D42ED
:100A530045522020202020002020204E4F542046A5
:100A63004F554E4420202020002020544845204943
:0A0A73004E4445582049532020004E
:040BE50002190005EC
:100B0900E4F5A0C282C280C2817F38FE120BA8120E
:100B19000B4C7F067E00120BA8120B4C7F0C7E003B
:100B2900120BA8120B4C7F017E00120BA8120B4C62
:070B39007F807E00020BA883
:100B40007F01120BA87F807E00120BA87F047E001D
:100B5000E4FDFCC3ED9FEC9E5015E4FBFA0BBB00DB
:0F0B6000010ABA01F8BB7EF50DBD00010C80E45F
:010B6F002263
:0D0B9B00E508C454F0F508F5907F807E0059
:100BA800C280C281D2828FA07F0A7E00120B50C2FF
:020BB800822297
:100BD300D280C281D2828FA07F0A7E00120B50C2C4
:020BE30082226C
:060B70007BFF7A0979F514
:100B76008B1B8A1C891DAB1BAA1CA91D120BBA60F4
:100B860013051DE51D7002051C14F9120BBAFF12A0
:050B96000BD380E222F8
:1008000075900F120B09120B457BFF7A0979D312F1
:100810000B767F887E13120B50120BA47BFF7A0994
:1008200079E4120B767F887E13120B508590088531
:10083000900F120B9B120B707F887E13120B50755A
:10084000130075140175900F859008740F2514F826
:10085000A690120B9B120B707F887E13120B500513
:1008600014E51470020513C39405E51364809480A5
:1008700040D375900F859008859013120B9B7BFFDA
:100880007A0A7906120B767F887E13120B50E4F5F4
:10089000907FC0FE120BA87BFF7A0A7917120B76A5
:1008A0007FE87E03120B50E4F517F518E4F515F513
:1008B00016AF1674102FF8E6FE740F2FF8E6FFD36C
:1008C0009E40108F0BAF16740F2FF8A60674102FD2
:1008D000F8A60B0516E5167002051564044515709B
:1008E000D00518E518700205176404451770BDE4BB
:1008F000F590859008F50DF50E740F250EF8E6F5C8
:1009000008C454F0F508F5907F887E13120B50E46C
:10091000F5907FE87E03120B50050EE50E70020580
:100920000DC39405E50D6480948040CD7590FF1251
:100930000B457BFF7A0A7928120B76120B4C7FC08D
:10094000120B497BFF7A0A7939120B767F887E1366
:10095000120B5075900F85900C7FE87E03120B50A0
:10096000E4F509F50AAF0A740F2FF8E6B50C048F09
:100970000C8019E50A640445097003750C08050A22
:10098000E50A700205096405450970D9E50C64089B
:100990007023FE120B407BFF7A0A794A120B761203
:1009A0000B4C7FC0120B497BFF7A0A795B120B76E6
:1009B000120B4C80FE7E00120B407BFF7A0A796C92
:1009C000120B76120B4C050CE50CC454F0F50CF52B
:0309D0009080FE16
:100A8900020800E493A3F8E493A34003F68001F27B
:100A990008DFF48029E493A3F85407240CC8C3336E
:100AA900C4540F4420C8834004F456800146F6DF3D
:100AB900E4800B0102040810204080900BE5E47EDD
:100AC900019360BCA3FF543F30E509541FFEE49332
:100AD900A360010ECF54C025E060A840B8E493A3F9
:100AE900FAE493A3F8E493A3C8C582C8CAC583CA24
:100AF900F0A3C8C582C8CAC583CADFE9DEE780BEDC
:010BE900000B
:100BBA00BB010689828A83E0225002E722BBFE0239
:090BCA00E32289828A83E493226C
:00000001FF
