:03000000020C3EB1
:0C0C3E00787FE4F6D8FD75812E020C854D
:0C0E5100566F6C742E3A2000206D560085
:0A0E5D00C1000621000000000000A3
:100D8B00E4F5A0C282C280C2817F38FE120E21120E
:100D9B000DE77F067E00120E21120DE77F0C7E0001
:100DAB00120E21120DE77F017E00120E21120DE7AC
:070DBB007F807E00020E2183
:040DE7007F047E0007
:100DEB00E4FDFCC3ED9FEC9E5015E4FBFA0BBB003E
:0F0DFB00010ABA01F8BB7EF50DBD00010C80E4C2
:010E0A0022C5
:100B98008E2A8F2B8B2C8A2D892E7C277D10120A6A
:100BA80012EF24301209DEAE2AAF2B7C277D1012FB
:100BB8000A127E037FE8CFCDCFCECCCE120A12EF39
:100BC8002430AB2CAA2DA92E9000011209F0AE2AD0
:100BD800AF2B7C037DE8120A127E007F64CFCDCF55
:100BE800CECCCE120A12EF2430AB2CAA2DA92E900F
:100BF80000021209F0AE2AAF2B7C007D64120A12A3
:100C08007E007F0ACFCDCFCECCCE120A12EF243091
:100C1800AB2CAA2DA92E9000031209F0AE2AAF2BF7
:100C28007C007D0A120A12ED2430AB2CAA2DA92EC5
:060C38009000040209F027
:100E2100C280C281D2828FA07F0A7E00120DEBC2E6
:020E310082221B
:100E3300D280C281D2828FA07F0A7E00120DEBC2C4
:020E4300822209
:100DC2008B0E8A0F8910AB0EAA0FA9101209C560EB
:100DD200130510E5107002050F14F91209C5FF1270
:050DE2000E3380E22247
:0C0E450075C33F43B104D2AF43C3402249
:080D2F008F1D8E1C8D1B8C1A18
:100D3700C2007810120A75E48FC53000FDA927C2DA
:100D470000AF1DAE1CAD1BAC1A7808120A758FC513
:100D57003000FDAB27C200E51DFF8FC53000FDAD9C
:100D670027EB7B00FA7E00E97810C333CE33CED869
:100D7700F92BFFEE3AFE7C00EF2DFFEC3EFE33959C
:030D8700E0FDFC90
:010D8A002246
:03004B00020E0B97
:100E0B00C0E0C0D0E5C454F02480700585C527D25E
:060E1B0000D0D0D0E0324F
:030E6800D29422FF
:020CCA00AB0776
:100CCC00E4F515F514751301F512EF75F010A47E0B
:100CDC00005470FFEE3395E0FDFCEF4480FFED789F
:100CEC0008120A888F198E188D178C16E515251980
:100CFC00FFE5143518FEE5133517FDE5123516FC26
:100D0C00C294120D2F8F118E108D0F8C0ED294E574
:100D1C0011F511E5105403F510E4F50FF50EAE10B6
:020D2C00AF1105
:010D2E0022A2
:100A9B00E4F508F509F50AF50B120E45120E68126E
:020AAB000D8BB1
:100AAD007F04120CCA8E0C8F0DAC0CAD0DE4120927
:100ABD000B7B827A73794E78401208001209448EAE
:100ACD000A8F0B7F807E00120E217BFF7A0E7951EB
:100ADD00120DC2AE0AAF0B7C007D0A120A12ED2474
:100AED0030F521AE0AAF0B7C007D0A120A128E0A78
:100AFD008F0B7C007D0A120A12ED2430F522AE0A0E
:100B0D00AF0B7C007D0A120A128E0A8F0B7C007DC2
:100B1D000A120A12ED2430F523AE0AAF0B7C007DCC
:100B2D000A120A128E0A8F0B7C007D0A120A12ED30
:100B3D002430F524AE0AAF0B7C007D0A120A128E0A
:100B4D000A8F0B7C007D0A120A12ED2430F525AEBA
:100B5D000AAF0B7C007D0A120A128E0A8F0B7528C4
:100B6D000075290474212529F8E6FF120E33E529B5
:100B7D00152970021528C3E5286480948050E57B03
:080B8D00FF7A0E7959120DC226
:030B9500020AADA4
:10080000EC4D6011E8497017ED33EC3304600DE4F2
:10081000FCFFFEFD22E933E8330470F80209B01250
:10082000097B58046009E4CC248150062850090251
:1008300009BA2840030209B7C0E0EB4A7044B98006
:1008400006D0E0FB0209A6EF4E701CBD8008EBFF4E
:10085000EAFEE9FD80EBE98DF0A4FEE5F00208E98F
:10086000E9CDF9EAFEEBFFEF89F0A4FCE5F0CE89D3
:10087000F0A42EFFE435F0CD89F0A42DFEE435F090
:100880008067EF4E7005BD80D780C3EF8BF0A4ACBE
:10089000F0EE8BF0A42CFCE435F0F8EF8AF0A42CF9
:1008A000E5F038FCE433CB8DF0A42CFCE5F03BF80C
:1008B000EE8AF0A42CFCE5F038F8E433CF89F0A4FC
:1008C0002CFCE5F038CF3400CE89F0A42FFFE5F002
:1008D0003EFEE433C98DF0A42EFEE5F039CD8AF05A
:1008E000A42FFFE5F03EFEE43DFD33D0E0FB5007D2
:1008F0000BBB000F0209BAEC2CFCEF33FFEE33FE0A
:06090000ED33FD02099237
:1009060075F020800E75F010800575F0087D007E6C
:10091600007F003392D530D503120A67EC334010BE
:10092600EF33FFEE33FEED33FDEC33FCD5F0ED2275
:0E093600E5F0247EA2D513CC92E7CDCEFF22B1
:10094400EDD2E7CD33EC3392D524814006E4FFFEAB
:10095400FDFC22FCE4CFCECDCC24E0501174FF800A
:10096400EDC3CC13CCCD13CDCE13CECF13CF0470A7
:07097400F030D5DE020A6736
:10097B00E9D2E7C933E833F892D5EDD2E7CD33ECC2
:07098B0033FC5002B2D5223B
:10099200EC30E7100FBF000C0EBE00080DBD0004C6
:1009A2000BEB6014A2D5EB13FCED92E7FD2274FF72
:1009B200FCFDFEFF22E480F8A2D574FF13FC7D80CB
:0309C200E480EFDF
:100C4A00020A9BE493A3F8E493A34003F68001F21B
:100C5A0008DFF48029E493A3F85407240CC8C333AB
:100C6A00C4540F4420C8834004F456800146F6DF7A
:100C7A00E4800B0102040810204080900E5DE47E9F
:100C8A00019360BCA3FF543F30E509541FFEE4936F
:100C9A00A360010ECF54C025E060A840B8E493A336
:100CAA00FAE493A3F8E493A3C8C582C8CAC583CA61
:100CBA00F0A3C8C582C8CAC583CADFE9DEE780BE19
:010E6700008A
:1009C500BB010689828A83E0225002E722BBFE0230
:0909D500E32289828A83E4932263
:1009DE00BB010689828A83F0225002F722BBFE01F8
:0209EE00F322F2
:1009F000F8BB010DE58229F582E5833AF583E8F03D
:100A0000225006E92582C8F622BBFE05E92582C8E8
:020A1000F222D0
:100A1200BC000BBE0029EF8DF084FFADF022E4CCC8
:100A2200F875F008EF2FFFEE33FEEC33FCEE9DEC91
:100A3200984005FCEE9DFE0FD5F0E9E4CEFD22EDD7
:100A4200F8F5F0EE8420D21CFEADF075F008EF2F21
:100A5200FFED33FD4007985006D5F0F222C398FD12
:050A62000FD5F0EA22AF
:0E0A6700C3E49FFFE49EFEE49DFDE49CFC22A0
:100A7500E8600FECC313FCED13FDEE13FEEF13FF5F
:030A8500D8F12283
:100A8800E8600FEFC333FFEE33FEED33FDEC33FCCC
:030A9800D8F12270
:00000001FF
