:03000000020A11E0
:0C0A1100787FE4F6D8FD758115020A58C4
:100A9D0020456E7465722050617373776F72642098
:100AAD0000436F72726563742050617373776F7258
:100ABD00640020416363657373204772616E7465D2
:100ACD006420002057726F6E672050617373776FCB
:100ADD007264200020416363657373202044656E4A
:050AED006965642000B2
:040BB6000209000030
:100AF200E4F5A0C282C280C2817F38FE120B92123C
:100B02000B307F067E00120B92120B307F0C7E00A0
:100B1200120B92120B307F017E00120B92120B30DD
:070B22007F807E00020B92B0
:0B0B29007F807E00120B927F047E0094
:100B3400E4FDFCC3ED9FEC9E5015E4FBFA0BBB00F7
:0F0B4400010ABA01F8BB7EF50DBD00010C80E47B
:010B5300227F
:100B9200C280C281D2828FA07F0A7E00120B34C231
:020BA2008222AD
:100BA400D280C281D2828FA07F0A7E00120B34C20F
:020BB40082229B
:100B54008B138A148915AB13AA14A915120B796087
:100B6400130515E5157002051414F9120B79FF121B
:050B74000BA480E22249
:10080000120AF2120B297BFF7A0A799D120B54E42B
:10081000F509F50A75B00F85B00853080FE508B45F
:100820000FF57F147E00120B3485B00853080FE5D6
:1008300008640F60ED7F147E00120B3485B00853FE
:10084000080FE508640F60DA75B0EFE5B0540FF5F6
:1008500008640F702A75B0DFE5B0540FF508640F17
:10086000705175B0BFE5B0540FF508640F70757521
:10087000B07FE5B0540FF508640F60A6020914209C
:10088000B30A740B250AF8763102094220B20A74C1
:100890000B250AF8763202094220B10A740B250AA8
:1008A000F8763302094220B00A740B250AF8764123
:1008B00002094220B30A740B250AF8763402094271
:1008C00020B209740B250AF87635807620B10974B8
:1008D0000B250AF87636806A20B009740B250AF8D1
:1008E0007642805E20B309740B250AF87637805271
:1008F00020B209740B250AF87638804620B10974B5
:100900000B250AF87639803A20B009740B250AF8CD
:100910007643802E20B309740B250AF8762A8022AC
:1009200020B209740B250AF87630801620B10974BC
:100930000B250AF87623800A20B015740B250AF8D7
:1009400076447FC0120B2B7B007A00790B120B547C
:10095000050AE50A70020509C39408E509940050E8
:10096000030208147FE87E03120B34E50CB435044F
:100970007F0180027F00E50BB431047E0180027E9E
:1009800000EE5FFFE50DB441047E0180027E00EEC3
:100990005FFFE50EB438047E0180027E00EE5FFF4B
:1009A000E50FB42A047E0180027E00EE5FFFE510B1
:1009B000B444047E0180027E00EE5FFFE511B43690
:1009C000047E0180027E00EE5FFFE512B423047E08
:1009D0000180027E00EE5F601C120B297BFF7A0A09
:1009E00079AE120B547FC0120B2B7BFF7A0A79BFB2
:1009F000120B5480FE120B297BFF7A0A79D0120B5E
:100A0000547FC0120B2B7BFF7A0A79E1120B5480C2
:010A1000FEE7
:100A1D00020800E493A3F8E493A34003F68001F2E7
:100A2D0008DFF48029E493A3F85407240CC8C333DA
:100A3D00C4540F4420C8834004F456800146F6DFA9
:100A4D00E4800B0102040810204080900BB6E47E78
:100A5D00019360BCA3FF543F30E509541FFEE4939E
:100A6D00A360010ECF54C025E060A840B8E493A365
:100A7D00FAE493A3F8E493A3C8C582C8CAC583CA90
:100A8D00F0A3C8C582C8CAC583CADFE9DEE780BE48
:010BBA00003A
:100B7900BB010689828A83E0225002E722BBFE027A
:090B8900E32289828A83E49322AD
:00000001FF
